:020000040000FA
:100000000C9462000C948A000C948A000C948A0070
:100010000C948A000C948A000C948A000C948A0038
:100020000C948A000C948A000C948A000C94A70308
:100030000C948A000C948A000C948A000C948A0018
:100040000C9405030C948A000C9475030C944F03D4
:100050000C948A000C948A000C948A000C948A00F8
:100060000C948A000C948A000000000023002600F3
:10007000290000000008000201000003040700003E
:1000800000000000000000000000250028002B00F8
:1000900000000000240027002A00040404040404D3
:1000A0000404020202020202030303030303010227
:1000B00004081020408001020408102001020408F6
:1000C0001020F30411241FBECFEFD8E0DEBFCDBF58
:1000D00011E0A0E0B1E0E4E9FAE002C005900D9281
:1000E000A831B107D9F721E0A8E1B1E001C01D9224
:1000F000A33EB207E1F710E0C2E6D0E004C02197CA
:10010000FE010E944205C136D107C9F70E940B04C7
:100110000C9448050C940000CF93DF9390E0FC0111
:10012000E255FF4F249186569F4FFC01849188230E
:10013000C1F090E0880F991FFC01E057FF4FC59177
:10014000D491FC01EA57FF4FA591B4919FB7F89461
:100150003881822F809583238883EC91E22BEC9366
:100160009FBFDF91CF910895833081F028F48130D3
:1001700099F08230A9F008958730A9F08830C9F04D
:100180008430B1F4809180008F7D03C08091800025
:100190008F7780938000089584B58F7784BD08950C
:1001A00084B58F7DFBCF8091B0008F778093B000B6
:1001B00008958091B0008F7DF9CFCF93DF93282FE2
:1001C00030E0F901EE58FF4F8491F901E255FF4FFD
:1001D000D491F901E656FF4FC491CC23A1F08111CF
:1001E0000E94B400EC2FF0E0EE0FFF1FE859FF4F24
:1001F000A591B491EC91ED2381E090E009F480E0C9
:10020000DF91CF91089580E090E0FACF1F93CF93D4
:10021000DF93282F30E0F901EE58FF4F8491F90168
:10022000E255FF4FD491F901E656FF4FC491CC231C
:10023000A9F0162F81110E94B400EC2FF0E0EE0F10
:10024000FF1FEA57FF4FA591B4918FB7F894EC9137
:10025000111108C0D095DE23DC938FBFDF91CF91C1
:100260001F910895DE2BF8CF8E50806480937C0020
:1002700080917A00806480937A0080917A0086FD74
:10028000FCCF809178009091790008953FB7F89461
:100290008091420190914301A0914401B0914501A8
:1002A00026B5A89B05C02F3F19F00196A11DB11DD1
:1002B0003FBFBA2FA92F982F8827BC01CD01620F0D
:1002C000711D811D911D42E0660F771F881F991FC8
:1002D0004A95D1F70895AF92BF92CF92DF92EF92F5
:1002E000FF920F931F93CF93DF936C017B018B01E0
:1002F000040F151FEB015E01AE18BF08C017D10730
:1003000059F06991D601ED91FC910190F081E02DB9
:10031000C6010995892B79F7C501DF91CF911F910E
:100320000F91FF90EF90DF90CF90BF90AF90089526
:10033000FC01538D448D252F30E0842F90E0821BEB
:10034000930B541710F0CF96089501970895FC0170
:10035000918D828D981761F0A28DAE0FBF2FB11DC8
:100360005D968C91928D9F5F9F73928F90E0089520
:100370008FEF9FEF0895FC01918D828D981731F0DA
:10038000828DE80FF11D858D90E008958FEF9FEF2E
:100390000895FC01918D228D892F90E0805C9F4F04
:1003A000821B91098F739927089586E491E00E943A
:1003B000C90121E0892B09F420E0822F089580E013
:1003C00090E0892B29F00E94D50181110C94000046
:1003D0000895FC01A48DA80FB92FB11DA35ABF4FDA
:1003E0002C91848D90E001968F739927848FA68934
:1003F000B7892C93A089B1898C91837080648C9388
:10040000938D848D981306C00288F389E02D808136
:100410008F7D80830895EF92FF920F931F93CF9368
:10042000DF93EC0181E0888F9B8D8C8D98131AC02F
:10043000E889F989808185FF15C09FB7F894EE8916
:10044000FF896083E889F989808183708064808373
:100450009FBF81E090E0DF91CF911F910F91FF90BE
:10046000EF900895F62E0B8D10E00F5F1F4F0F7366
:100470001127E02E8C8D8E110CC00FB607FCFACF21
:10048000E889F989808185FFF5CFCE010E94E901D5
:10049000F1CFEB8DEC0FFD2FF11DE35AFF4FF082F2
:1004A0009FB7F8940B8FEA89FB8980818062CFCF58
:1004B000CF93DF93EC01888D8823B9F0AA89BB899B
:1004C000E889F9898C9185FD03C0808186FD0DC086
:1004D0000FB607FCF7CF8C9185FFF2CF808185FFA7
:1004E000EDCFCE010E94E901E9CFDF91CF910895D0
:1004F000FC0101900020E9F73197AF01481B590B2F
:10050000BC0186E491E00C946B018F929F92AF92B4
:10051000BF92CF92DF92EF92FF92CF93DF93CDB74E
:10052000DEB7A1970FB6F894DEBF0FBECDBF6C014A
:1005300083E1C81681E0D80641F484E191E00E948D
:10054000780282E191E00E9478020D2C000CEE0806
:10055000FF08F7FE3FC06DE286E491E00E940B02C7
:1005600022273327A9012C193D094E095F0919A239
:10057000FE01B1967F019AE0892E912CA12CB12C1D
:10058000CA01B901A50194010E942005605DF7012F
:1005900062937F01211531054105510589F7E11469
:1005A000F10419F0C7010E94780285E191E00E94F0
:1005B0007802A1960FB6F894DEBF0FBECDBFDF91D3
:1005C000CF91FF90EF90DF90CF90BF90AF909F9032
:1005D0008F900895A701960119A2CE0181967C0102
:1005E0008AE0882E912CA12CB12CCA01B901A50159
:1005F00094010E942005605DF70162937F0121153F
:1006000031054105510589F7CACF1F920F920FB6E8
:100610000F9211242F933F938F939F93AF93BF9388
:1006200080913E0190913F01A0914001B091410124
:1006300030913D0123E0230F2D3758F50196A11D80
:10064000B11D20933D0180933E0190933F01A09303
:100650004001B09341018091420190914301A091EA
:100660004401B09145010196A11DB11D8093420145
:1006700090934301A0934401B0934501BF91AF9182
:100680009F918F913F912F910F900FBE0F901F90D0
:10069000189526E8230F0296A11DB11DD2CF1F92F7
:1006A0000F920FB60F9211242F933F934F935F93A6
:1006B0006F937F938F939F93AF93BF93EF93FF932A
:1006C00086E491E00E94E901FF91EF91BF91AF9123
:1006D0009F918F917F916F915F914F913F912F915A
:1006E0000F900FBE0F901F9018951F920F920FB68C
:1006F0000F9211242F938F939F93EF93FF93E09189
:100700005601F09157018081E0915C01F0915D010B
:1007100082FD1BC0908180915F018F5F8F7320915C
:100720006001821741F0E0915F01F0E0EA5BFE4F6B
:10073000958F80935F01FF91EF919F918F912F9102
:100740000F900FBE0F901F9018958081F4CF1F92CD
:100750000F920FB60F9211242F933F938F939F9375
:10076000EF93FF9380913C0187FF1FC0109285009B
:100770001092840080913C018F5F80933C018091B6
:100780003C0187FF04C080913C018C30ACF080912B
:10079000840090918500049680349C4990F180916A
:1007A00084009091850004962EC080913C0187FFC3
:1007B000E1CF80913C01DECF209184003091850013
:1007C000E0913C018E2FEE0F990BFC01EE0FFF1F05
:1007D000E80FF91FE85EFE4F81819281820F931F1F
:1007E000909389008093880080913C01FF91EF9164
:1007F0009F918F913F912F910F900FBE0F901F905F
:10080000189580E49CE990938900809388008FEF8D
:1008100080933C01EBCF789484B5826084BD84B52D
:10082000816084BD85B5826085BD85B5816085BDEB
:1008300080916E00816080936E00109281008091A3
:10084000810082608093810080918100816080932B
:100850008100809180008160809380008091B10050
:1008600084608093B1008091B00081608093B0007B
:1008700080917A00846080937A0080917A0082600F
:1008800080937A0080917A00816080937A008091D1
:100890007A00806880937A001092C100E09156013E
:1008A000F091570182E08083E0915201F091530171
:1008B0001082E0915401F09155018FEC80831092E9
:1008C0005E01E0915A01F0915B0186E08083E09146
:1008D0005801F0915901808180618083E091580135
:1008E000F0915901808188608083E0915801F091F6
:1008F0005901808180688083E0915801F09159010D
:1009000080818F7D808385E00E948C0086E00E943C
:100910008C0090E0692E90E0792E85E00E94DD0049
:10092000EC0186E00E94DD004C018EE00E94340163
:100930007C018FE00E9434018C0181E10E9434012E
:100940005C0183E10E9434016C0190E080E00E9430
:1009500085028FEF93E00E948502C5010E94850207
:10096000C6010E948502C7010E948502C8010E943B
:100970008502CE010E948502C4010E94850283E1A6
:1009800091E00E9485020E9446014B015C0182E3D6
:10099000C82ED12CE12CF12C0E944601681979094E
:1009A0008A099B09683E734081059105A8F321E0FF
:1009B000C21AD108E108F10888EE880E83E0981E7B
:1009C000A11CB11CC114D104E104F10429F7611484
:1009D000710409F4A2CF0E94D501882309F49DCFA8
:1009E0000E9400009ACFE6E4F1E01382128288EEC2
:1009F00093E0A0E0B0E084839583A683B78384E08E
:100A000091E09183808385EC90E09587848784ECE6
:100A100090E09787868780EC90E0918B808B81ECCB
:100A200090E0938B828B82EC90E0958B848B86ECAC
:100A300090E0978B868B118E128E138E148E0895F4
:100A4000A1E21A2EAA1BBB1BFD010DC0AA1FBB1FD2
:100A5000EE1FFF1FA217B307E407F50720F0A21B44
:100A6000B30BE40BF50B661F771F881F991F1A94B1
:100A700069F760957095809590959B01AC01BD01DB
:100A8000CF010895EE0FFF1F0590F491E02D09941A
:100A9000F894FFCF000000000B026B019801580290
:0C0AA000C901A701BB010D0A00200000E5
:107E0000112484B714BE81FFF0D085E080938100F7
:107E100082E08093C00088E18093C10086E0809377
:107E2000C20080E18093C4008EE0C9D0259A86E02C
:107E300020E33CEF91E0309385002093840096BBD3
:107E4000B09BFECF1D9AA8958150A9F7CC24DD24C4
:107E500088248394B5E0AB2EA1E19A2EF3E0BF2EE7
:107E6000A2D0813461F49FD0082FAFD0023811F036
:107E7000013811F484E001C083E08DD089C08234E0
:107E800011F484E103C0853419F485E0A6D080C0E4
:107E9000853579F488D0E82EFF2485D0082F10E0AE
:107EA000102F00270E291F29000F111F8ED06801E7
:107EB0006FC0863521F484E090D080E0DECF843638
:107EC00009F040C070D06FD0082F6DD080E0C81688
:107ED00080E7D80618F4F601B7BEE895C0E0D1E017
:107EE00062D089930C17E1F7F0E0CF16F0E7DF06D8
:107EF00018F0F601B7BEE89568D007B600FCFDCFD4
:107F0000A601A0E0B1E02C9130E011968C91119780
:107F100090E0982F8827822B932B1296FA010C0160
:107F200087BEE89511244E5F5F4FF1E0A038BF0790
:107F300051F7F601A7BEE89507B600FCFDCF97BE46
:107F4000E89526C08437B1F42ED02DD0F82E2BD052
:107F50003CD0F601EF2C8F010F5F1F4F84911BD097
:107F6000EA94F801C1F70894C11CD11CFA94CF0C13
:107F7000D11C0EC0853739F428D08EE10CD085E9AC
:107F80000AD08FE07ACF813511F488E018D01DD067
:107F900080E101D065CF982F8091C00085FFFCCF94
:107FA0009093C60008958091C00087FFFCCF809118
:107FB000C00084FD01C0A8958091C6000895E0E648
:107FC000F0E098E1908380830895EDDF803219F02E
:107FD00088E0F5DFFFCF84E1DECF1F93182FE3DFCA
:107FE0001150E9F7F2DF1F91089580E0E8DFEE27F6
:047FF000FF270994CA
:027FFE00040479
:00000001FF
